{
  "abi": [
    {
      "inputs": [],
      "name": "PRECISION",
      "outputs": [
        {
          "internalType": "uint256",
          "name": "",
          "type": "uint256"
        }
      ],
      "stateMutability": "view",
      "type": "function"
    },
    {
      "inputs": [],
      "name": "_rewardRate",
      "outputs": [
        {
          "internalType": "uint80",
          "name": "",
          "type": "uint80"
        }
      ],
      "stateMutability": "view",
      "type": "function"
    },
    {
      "inputs": [
        {
          "internalType": "address",
          "name": "",
          "type": "address"
        },
        {
          "internalType": "uint8",
          "name": "",
          "type": "uint8"
        }
      ],
      "name": "accounts",
      "outputs": [
        {
          "components": [
            {
              "internalType": "uint96",
              "name": "balance",
              "type": "uint96"
            },
            {
              "internalType": "uint160",
              "name": "sumOfEntryTimes",
              "type": "uint160"
            }
          ],
          "internalType": "struct Ledger.ValueVariables",
          "name": "valueVariables",
          "type": "tuple"
        },
        {
          "components": [
            {
              "internalType": "uint256",
              "name": "idealPosition",
              "type": "uint256"
            },
            {
              "internalType": "uint256",
              "name": "rewardPerValue",
              "type": "uint256"
            }
          ],
          "internalType": "struct Ledger.RewardSummations",
          "name": "rewardSummationsPaid",
          "type": "tuple"
        },
        {
          "internalType": "uint160",
          "name": "previousValues",
          "type": "uint160"
        },
        {
          "internalType": "uint48",
          "name": "lastUpdate",
          "type": "uint48"
        }
      ],
      "stateMutability": "view",
      "type": "function"
    },
    {
      "inputs": [],
      "name": "periodFinish",
      "outputs": [
        {
          "internalType": "uint40",
          "name": "",
          "type": "uint40"
        }
      ],
      "stateMutability": "view",
      "type": "function"
    },
    {
      "inputs": [],
      "name": "rewardSummationsStored",
      "outputs": [
        {
          "internalType": "uint256",
          "name": "idealPosition",
          "type": "uint256"
        },
        {
          "internalType": "uint256",
          "name": "rewardPerValue",
          "type": "uint256"
        }
      ],
      "stateMutability": "view",
      "type": "function"
    },
    {
      "inputs": [],
      "name": "totalValueVariables",
      "outputs": [
        {
          "internalType": "uint96",
          "name": "balance",
          "type": "uint96"
        },
        {
          "internalType": "uint160",
          "name": "sumOfEntryTimes",
          "type": "uint160"
        }
      ],
      "stateMutability": "view",
      "type": "function"
    }
  ],
  "bytecode": {
    "object": "0x608060405234801561001057600080fd5b506102b1806100206000396000f3fe608060405234801561001057600080fd5b50600436106100625760003560e01c80631e83c7941461006757806368fd25cd14610149578063aaf5eb681461017a578063df3e1aa414610193578063ebe2b12b146101df578063f5c455001461020d575b600080fd5b6100ef610075366004610230565b60006020818152928152604080822084529181528190208151808301835281546001600160601b0381168252600160601b90046001600160a01b03908116828601528351808501909452600183015484526002830154948401949094526003909101549092811690600160a01b900465ffffffffffff1684565b6040805185516001600160601b031681526020958601516001600160a01b0390811687830152855192820192909252949093015160608501529116608083015265ffffffffffff1660a082015260c0015b60405180910390f35b60045461015f9069ffffffffffffffffffff1681565b60405169ffffffffffffffffffff9091168152602001610140565b610185600160801b81565b604051908152602001610140565b6001546101b8906001600160601b03811690600160601b90046001600160a01b031682565b604080516001600160601b0390931683526001600160a01b03909116602083015201610140565b6004546101f790600160501b900464ffffffffff1681565b60405164ffffffffff9091168152602001610140565b60025460035461021b919082565b60408051928352602083019190915201610140565b6000806040838503121561024357600080fd5b82356001600160a01b038116811461025a57600080fd5b9150602083013560ff8116811461027057600080fd5b80915050925092905056fea26469706673582212202b84a840b97075af5242242bb36c7516660372df2fbce97e30ff11a1ac46d80964736f6c63430008110033",
    "linkReferences": {}
  },
  "methodIdentifiers": {
    "PRECISION()": "aaf5eb68",
    "_rewardRate()": "68fd25cd",
    "accounts(address,uint8)": "1e83c794",
    "periodFinish()": "ebe2b12b",
    "rewardSummationsStored()": "f5c45500",
    "totalValueVariables()": "df3e1aa4"
  },
  "id": 0
}