{
  "abi": [
    {
      "inputs": [],
      "name": "PRECISION",
      "outputs": [
        {
          "internalType": "uint256",
          "name": "",
          "type": "uint256"
        }
      ],
      "stateMutability": "view",
      "type": "function"
    },
    {
      "inputs": [],
      "name": "_rewardRate",
      "outputs": [
        {
          "internalType": "uint80",
          "name": "",
          "type": "uint80"
        }
      ],
      "stateMutability": "view",
      "type": "function"
    },
    {
      "inputs": [
        {
          "internalType": "address",
          "name": "",
          "type": "address"
        },
        {
          "internalType": "uint8",
          "name": "",
          "type": "uint8"
        }
      ],
      "name": "accounts",
      "outputs": [
        {
          "components": [
            {
              "internalType": "uint96",
              "name": "balance",
              "type": "uint96"
            },
            {
              "internalType": "uint160",
              "name": "sumOfEntryTimes",
              "type": "uint160"
            }
          ],
          "internalType": "struct Ledger.ValueVariables",
          "name": "valueVariables",
          "type": "tuple"
        },
        {
          "components": [
            {
              "internalType": "uint256",
              "name": "idealPosition",
              "type": "uint256"
            },
            {
              "internalType": "uint256",
              "name": "rewardPerValue",
              "type": "uint256"
            }
          ],
          "internalType": "struct Ledger.RewardSummations",
          "name": "rewardSummationsPaid",
          "type": "tuple"
        },
        {
          "internalType": "uint160",
          "name": "previousValues",
          "type": "uint160"
        },
        {
          "internalType": "uint48",
          "name": "lastUpdate",
          "type": "uint48"
        }
      ],
      "stateMutability": "view",
      "type": "function"
    },
    {
      "inputs": [],
      "name": "lastUpdate",
      "outputs": [
        {
          "internalType": "uint40",
          "name": "",
          "type": "uint40"
        }
      ],
      "stateMutability": "view",
      "type": "function"
    },
    {
      "inputs": [],
      "name": "periodFinish",
      "outputs": [
        {
          "internalType": "uint40",
          "name": "",
          "type": "uint40"
        }
      ],
      "stateMutability": "view",
      "type": "function"
    },
    {
      "inputs": [],
      "name": "rewardSummationsStored",
      "outputs": [
        {
          "internalType": "uint256",
          "name": "idealPosition",
          "type": "uint256"
        },
        {
          "internalType": "uint256",
          "name": "rewardPerValue",
          "type": "uint256"
        }
      ],
      "stateMutability": "view",
      "type": "function"
    },
    {
      "inputs": [],
      "name": "totalValueVariables",
      "outputs": [
        {
          "internalType": "uint96",
          "name": "balance",
          "type": "uint96"
        },
        {
          "internalType": "uint160",
          "name": "sumOfEntryTimes",
          "type": "uint160"
        }
      ],
      "stateMutability": "view",
      "type": "function"
    }
  ],
  "bytecode": {
    "object": "0x608060405234801561001057600080fd5b506102e4806100206000396000f3fe608060405234801561001057600080fd5b506004361061007d5760003560e01c8063c04637111161005b578063c0463711146101ae578063df3e1aa4146101dc578063ebe2b12b14610228578063f5c455001461024057600080fd5b80631e83c7941461008257806368fd25cd14610164578063aaf5eb6814610195575b600080fd5b61010a610090366004610263565b60006020818152928152604080822084529181528190208151808301835281546001600160601b0381168252600160601b90046001600160a01b03908116828601528351808501909452600183015484526002830154948401949094526003909101549092811690600160a01b900465ffffffffffff1684565b6040805185516001600160601b031681526020958601516001600160a01b0390811687830152855192820192909252949093015160608501529116608083015265ffffffffffff1660a082015260c0015b60405180910390f35b60045461017a9069ffffffffffffffffffff1681565b60405169ffffffffffffffffffff909116815260200161015b565b6101a0600160801b81565b60405190815260200161015b565b6004546101c690600160781b900464ffffffffff1681565b60405164ffffffffff909116815260200161015b565b600154610201906001600160601b03811690600160601b90046001600160a01b031682565b604080516001600160601b0390931683526001600160a01b0390911660208301520161015b565b6004546101c690600160501b900464ffffffffff1681565b60025460035461024e919082565b6040805192835260208301919091520161015b565b6000806040838503121561027657600080fd5b82356001600160a01b038116811461028d57600080fd5b9150602083013560ff811681146102a357600080fd5b80915050925092905056fea26469706673582212207805b2c77cd362546fdf757286891590c946052aff57ed54fb07d3d7898f05b564736f6c63430008110033",
    "linkReferences": {}
  },
  "methodIdentifiers": {
    "PRECISION()": "aaf5eb68",
    "_rewardRate()": "68fd25cd",
    "accounts(address,uint8)": "1e83c794",
    "lastUpdate()": "c0463711",
    "periodFinish()": "ebe2b12b",
    "rewardSummationsStored()": "f5c45500",
    "totalValueVariables()": "df3e1aa4"
  },
  "id": 6
}