{
  "abi": [
    {
      "inputs": [],
      "name": "FailedTransfer",
      "type": "error"
    },
    {
      "inputs": [],
      "name": "HighSlippage",
      "type": "error"
    },
    {
      "inputs": [],
      "name": "InsufficientBalance",
      "type": "error"
    },
    {
      "inputs": [],
      "name": "InvalidAmount",
      "type": "error"
    },
    {
      "inputs": [],
      "name": "InvalidToken",
      "type": "error"
    },
    {
      "inputs": [],
      "name": "InvalidType",
      "type": "error"
    },
    {
      "inputs": [],
      "name": "Locked",
      "type": "error"
    },
    {
      "inputs": [],
      "name": "MismatchedArrayLengths",
      "type": "error"
    },
    {
      "inputs": [],
      "name": "NoEffect",
      "type": "error"
    },
    {
      "inputs": [],
      "name": "NonExistentToken",
      "type": "error"
    },
    {
      "inputs": [],
      "name": "NullInput",
      "type": "error"
    },
    {
      "inputs": [],
      "name": "OutOfBounds",
      "type": "error"
    },
    {
      "inputs": [],
      "name": "Overflow",
      "type": "error"
    },
    {
      "inputs": [],
      "name": "TooEarly",
      "type": "error"
    },
    {
      "inputs": [],
      "name": "TooLate",
      "type": "error"
    },
    {
      "inputs": [],
      "name": "Underflow",
      "type": "error"
    },
    {
      "inputs": [],
      "name": "UnprivilegedCaller",
      "type": "error"
    },
    {
      "anonymous": false,
      "inputs": [
        {
          "indexed": true,
          "internalType": "uint256",
          "name": "positionId",
          "type": "uint256"
        },
        {
          "indexed": true,
          "internalType": "uint256",
          "name": "amount",
          "type": "uint256"
        },
        {
          "indexed": true,
          "internalType": "uint256",
          "name": "reward",
          "type": "uint256"
        }
      ],
      "name": "Staked",
      "type": "event"
    },
    {
      "anonymous": false,
      "inputs": [
        {
          "indexed": true,
          "internalType": "uint256",
          "name": "positionId",
          "type": "uint256"
        },
        {
          "indexed": true,
          "internalType": "uint256",
          "name": "amount",
          "type": "uint256"
        },
        {
          "indexed": true,
          "internalType": "uint256",
          "name": "reward",
          "type": "uint256"
        }
      ],
      "name": "Withdrawn",
      "type": "event"
    },
    {
      "inputs": [],
      "name": "PRECISION",
      "outputs": [
        {
          "internalType": "uint256",
          "name": "",
          "type": "uint256"
        }
      ],
      "stateMutability": "view",
      "type": "function"
    },
    {
      "inputs": [],
      "name": "_rewardRate",
      "outputs": [
        {
          "internalType": "uint80",
          "name": "",
          "type": "uint80"
        }
      ],
      "stateMutability": "view",
      "type": "function"
    },
    {
      "inputs": [
        {
          "internalType": "address",
          "name": "",
          "type": "address"
        },
        {
          "internalType": "uint8",
          "name": "",
          "type": "uint8"
        }
      ],
      "name": "accounts",
      "outputs": [
        {
          "components": [
            {
              "internalType": "uint96",
              "name": "balance",
              "type": "uint96"
            },
            {
              "internalType": "uint160",
              "name": "sumOfEntryTimes",
              "type": "uint160"
            }
          ],
          "internalType": "struct Ledger.ValueVariables",
          "name": "valueVariables",
          "type": "tuple"
        },
        {
          "components": [
            {
              "internalType": "uint256",
              "name": "idealPosition",
              "type": "uint256"
            },
            {
              "internalType": "uint256",
              "name": "rewardPerValue",
              "type": "uint256"
            }
          ],
          "internalType": "struct Ledger.RewardSummations",
          "name": "rewardSummationsPaid",
          "type": "tuple"
        },
        {
          "internalType": "uint160",
          "name": "previousValues",
          "type": "uint160"
        },
        {
          "internalType": "uint48",
          "name": "lastUpdate",
          "type": "uint48"
        }
      ],
      "stateMutability": "view",
      "type": "function"
    },
    {
      "inputs": [],
      "name": "periodFinish",
      "outputs": [
        {
          "internalType": "uint40",
          "name": "",
          "type": "uint40"
        }
      ],
      "stateMutability": "view",
      "type": "function"
    },
    {
      "inputs": [
        {
          "internalType": "address",
          "name": "owner",
          "type": "address"
        },
        {
          "internalType": "uint8",
          "name": "account",
          "type": "uint8"
        }
      ],
      "name": "positionRewardRate",
      "outputs": [
        {
          "internalType": "uint256",
          "name": "",
          "type": "uint256"
        }
      ],
      "stateMutability": "view",
      "type": "function"
    },
    {
      "inputs": [],
      "name": "rewardSummationsStored",
      "outputs": [
        {
          "internalType": "uint256",
          "name": "idealPosition",
          "type": "uint256"
        },
        {
          "internalType": "uint256",
          "name": "rewardPerValue",
          "type": "uint256"
        }
      ],
      "stateMutability": "view",
      "type": "function"
    },
    {
      "inputs": [],
      "name": "totalValueVariables",
      "outputs": [
        {
          "internalType": "uint96",
          "name": "balance",
          "type": "uint96"
        },
        {
          "internalType": "uint160",
          "name": "sumOfEntryTimes",
          "type": "uint160"
        }
      ],
      "stateMutability": "view",
      "type": "function"
    }
  ],
  "bytecode": {
    "object": "0x6080604052600580546001600160a01b031916736b3595068778dd592e39a122f4f5a5cf09c90fe217905534801561003657600080fd5b50610425806100466000396000f3fe608060405234801561001057600080fd5b506004361061007d5760003560e01c8063bd71b5c31161005b578063bd71b5c3146101ae578063df3e1aa4146101c1578063ebe2b12b1461020d578063f5c455001461023b57600080fd5b80631e83c7941461008257806368fd25cd14610164578063aaf5eb6814610195575b600080fd5b61010a610090366004610342565b60006020818152928152604080822084529181528190208151808301835281546001600160601b0381168252600160601b90046001600160a01b03908116828601528351808501909452600183015484526002830154948401949094526003909101549092811690600160a01b900465ffffffffffff1684565b6040805185516001600160601b031681526020958601516001600160a01b0390811687830152855192820192909252949093015160608501529116608083015265ffffffffffff1660a082015260c0015b60405180910390f35b60045461017a9069ffffffffffffffffffff1681565b60405169ffffffffffffffffffff909116815260200161015b565b6101a0600160801b81565b60405190815260200161015b565b6101a06101bc366004610342565b61025e565b6001546101e6906001600160601b03811690600160601b90046001600160a01b031682565b604080516001600160601b0390931683526001600160a01b0390911660208301520161015b565b60045461022590600160501b900464ffffffffff1681565b60405164ffffffffff909116815260200161015b565b600254600354610249919082565b6040805192835260208301919091520161015b565b60008061026b60016102f6565b6001600160a01b03851660009081526020818152604080832060ff8816845290915281209192509061029c906102f6565b905080156102e857600454829082906102cf9064ffffffffff600160501b8204169069ffffffffffffffffffff16610329565b6102d991906103a3565b6102e391906103ba565b6102eb565b60005b925050505b92915050565b80546000906001600160a01b03600160601b8204169061031f906001600160601b0316426103a3565b6102f091906103dc565b6000428310610338578161033b565b60005b9392505050565b6000806040838503121561035557600080fd5b82356001600160a01b038116811461036c57600080fd5b9150602083013560ff8116811461038257600080fd5b809150509250929050565b634e487b7160e01b600052601160045260246000fd5b80820281158282048414176102f0576102f061038d565b6000826103d757634e487b7160e01b600052601260045260246000fd5b500490565b818103818111156102f0576102f061038d56fea264697066735822122000fc8898a462cb365b3c0122009fbc006a86c4f94ff503bceee75779bc6adb8764736f6c63430008110033",
    "linkReferences": {}
  },
  "methodIdentifiers": {
    "PRECISION()": "aaf5eb68",
    "_rewardRate()": "68fd25cd",
    "accounts(address,uint8)": "1e83c794",
    "periodFinish()": "ebe2b12b",
    "positionRewardRate(address,uint8)": "bd71b5c3",
    "rewardSummationsStored()": "f5c45500",
    "totalValueVariables()": "df3e1aa4"
  },
  "id": 1
}