{
  "abi": [
    {
      "inputs": [],
      "name": "FailedTransfer",
      "type": "error"
    },
    {
      "inputs": [],
      "name": "HighSlippage",
      "type": "error"
    },
    {
      "inputs": [],
      "name": "InsufficientBalance",
      "type": "error"
    },
    {
      "inputs": [],
      "name": "InvalidAmount",
      "type": "error"
    },
    {
      "inputs": [],
      "name": "InvalidToken",
      "type": "error"
    },
    {
      "inputs": [],
      "name": "InvalidType",
      "type": "error"
    },
    {
      "inputs": [],
      "name": "Locked",
      "type": "error"
    },
    {
      "inputs": [],
      "name": "MismatchedArrayLengths",
      "type": "error"
    },
    {
      "inputs": [],
      "name": "NoEffect",
      "type": "error"
    },
    {
      "inputs": [],
      "name": "NonExistentToken",
      "type": "error"
    },
    {
      "inputs": [],
      "name": "NullInput",
      "type": "error"
    },
    {
      "inputs": [],
      "name": "OutOfBounds",
      "type": "error"
    },
    {
      "inputs": [],
      "name": "Overflow",
      "type": "error"
    },
    {
      "inputs": [],
      "name": "TooEarly",
      "type": "error"
    },
    {
      "inputs": [],
      "name": "TooLate",
      "type": "error"
    },
    {
      "inputs": [],
      "name": "Underflow",
      "type": "error"
    },
    {
      "inputs": [],
      "name": "UnprivilegedCaller",
      "type": "error"
    },
    {
      "anonymous": false,
      "inputs": [
        {
          "indexed": true,
          "internalType": "uint256",
          "name": "positionId",
          "type": "uint256"
        },
        {
          "indexed": true,
          "internalType": "uint256",
          "name": "amount",
          "type": "uint256"
        },
        {
          "indexed": true,
          "internalType": "uint256",
          "name": "reward",
          "type": "uint256"
        }
      ],
      "name": "Staked",
      "type": "event"
    },
    {
      "anonymous": false,
      "inputs": [
        {
          "indexed": true,
          "internalType": "uint256",
          "name": "positionId",
          "type": "uint256"
        },
        {
          "indexed": true,
          "internalType": "uint256",
          "name": "amount",
          "type": "uint256"
        },
        {
          "indexed": true,
          "internalType": "uint256",
          "name": "reward",
          "type": "uint256"
        }
      ],
      "name": "Withdrawn",
      "type": "event"
    },
    {
      "inputs": [],
      "name": "PRECISION",
      "outputs": [
        {
          "internalType": "uint256",
          "name": "",
          "type": "uint256"
        }
      ],
      "stateMutability": "view",
      "type": "function"
    },
    {
      "inputs": [],
      "name": "_rewardRate",
      "outputs": [
        {
          "internalType": "uint80",
          "name": "",
          "type": "uint80"
        }
      ],
      "stateMutability": "view",
      "type": "function"
    },
    {
      "inputs": [
        {
          "internalType": "address",
          "name": "",
          "type": "address"
        },
        {
          "internalType": "uint8",
          "name": "",
          "type": "uint8"
        }
      ],
      "name": "accounts",
      "outputs": [
        {
          "components": [
            {
              "internalType": "uint96",
              "name": "balance",
              "type": "uint96"
            },
            {
              "internalType": "uint160",
              "name": "sumOfEntryTimes",
              "type": "uint160"
            }
          ],
          "internalType": "struct Ledger.ValueVariables",
          "name": "valueVariables",
          "type": "tuple"
        },
        {
          "components": [
            {
              "internalType": "uint256",
              "name": "idealPosition",
              "type": "uint256"
            },
            {
              "internalType": "uint256",
              "name": "rewardPerValue",
              "type": "uint256"
            }
          ],
          "internalType": "struct Ledger.RewardSummations",
          "name": "rewardSummationsPaid",
          "type": "tuple"
        },
        {
          "internalType": "uint160",
          "name": "previousValues",
          "type": "uint160"
        },
        {
          "internalType": "uint48",
          "name": "lastUpdate",
          "type": "uint48"
        }
      ],
      "stateMutability": "view",
      "type": "function"
    },
    {
      "inputs": [
        {
          "internalType": "uint8",
          "name": "account",
          "type": "uint8"
        }
      ],
      "name": "compound",
      "outputs": [],
      "stateMutability": "nonpayable",
      "type": "function"
    },
    {
      "inputs": [
        {
          "internalType": "uint8",
          "name": "account",
          "type": "uint8"
        }
      ],
      "name": "harvest",
      "outputs": [],
      "stateMutability": "nonpayable",
      "type": "function"
    },
    {
      "inputs": [],
      "name": "lastUpdate",
      "outputs": [
        {
          "internalType": "uint40",
          "name": "",
          "type": "uint40"
        }
      ],
      "stateMutability": "view",
      "type": "function"
    },
    {
      "inputs": [],
      "name": "periodFinish",
      "outputs": [
        {
          "internalType": "uint40",
          "name": "",
          "type": "uint40"
        }
      ],
      "stateMutability": "view",
      "type": "function"
    },
    {
      "inputs": [
        {
          "internalType": "address",
          "name": "owner",
          "type": "address"
        },
        {
          "internalType": "uint8",
          "name": "account",
          "type": "uint8"
        }
      ],
      "name": "positionRewardRate",
      "outputs": [
        {
          "internalType": "uint256",
          "name": "",
          "type": "uint256"
        }
      ],
      "stateMutability": "view",
      "type": "function"
    },
    {
      "inputs": [],
      "name": "rewardSummationsStored",
      "outputs": [
        {
          "internalType": "uint256",
          "name": "idealPosition",
          "type": "uint256"
        },
        {
          "internalType": "uint256",
          "name": "rewardPerValue",
          "type": "uint256"
        }
      ],
      "stateMutability": "view",
      "type": "function"
    },
    {
      "inputs": [
        {
          "internalType": "uint8",
          "name": "account",
          "type": "uint8"
        },
        {
          "internalType": "uint256",
          "name": "amount",
          "type": "uint256"
        }
      ],
      "name": "stake",
      "outputs": [],
      "stateMutability": "nonpayable",
      "type": "function"
    },
    {
      "inputs": [],
      "name": "totalValueVariables",
      "outputs": [
        {
          "internalType": "uint96",
          "name": "balance",
          "type": "uint96"
        },
        {
          "internalType": "uint160",
          "name": "sumOfEntryTimes",
          "type": "uint160"
        }
      ],
      "stateMutability": "view",
      "type": "function"
    },
    {
      "inputs": [
        {
          "internalType": "uint8",
          "name": "account",
          "type": "uint8"
        },
        {
          "internalType": "uint256",
          "name": "amount",
          "type": "uint256"
        }
      ],
      "name": "withdraw",
      "outputs": [],
      "stateMutability": "nonpayable",
      "type": "function"
    }
  ],
  "bytecode": {
    "object": "0x6080604052600580546001600160a01b031916736b3595068778dd592e39a122f4f5a5cf09c90fe217905534801561003657600080fd5b50610c3a806100466000396000f3fe608060405234801561001057600080fd5b50600436106100b45760003560e01c8063bd71b5c311610071578063bd71b5c314610220578063c046371114610233578063dd752e5514610261578063df3e1aa414610274578063ebe2b12b146102c0578063f5c45500146102d857600080fd5b8063043c9693146100b957806315146d13146100ce5780631e83c794146100e15780633f489914146101c357806368fd25cd146101d6578063aaf5eb6814610207575b600080fd5b6100cc6100c7366004610ad1565b6102fb565b005b6100cc6100dc366004610ad1565b610312565b6101696100ef366004610aec565b60006020818152928152604080822084529181528190208151808301835281546001600160601b0381168252600160601b90046001600160a01b03908116828601528351808501909452600183015484526002830154948401949094526003909101549092811690600160a01b900465ffffffffffff1684565b6040805185516001600160601b031681526020958601516001600160a01b0390811687830152855192820192909252949093015160608501529116608083015265ffffffffffff1660a082015260c0015b60405180910390f35b6100cc6101d1366004610b2d565b610326565b6004546101ec9069ffffffffffffffffffff1681565b60405169ffffffffffffffffffff90911681526020016101ba565b610212600160801b81565b6040519081526020016101ba565b61021261022e366004610aec565b61033d565b60045461024b90600160781b900464ffffffffff1681565b60405164ffffffffff90911681526020016101ba565b6100cc61026f366004610b2d565b6103d5565b600154610299906001600160601b03811690600160601b90046001600160a01b031682565b604080516001600160601b0390931683526001600160a01b039091166020830152016101ba565b60045461024b90600160501b900464ffffffffff1681565b6002546003546102e6919082565b604080519283526020830191909152016101ba565b6103036103e8565b61030f8133600061043d565b50565b61031a6103e8565b61030f81336000610654565b61032e6103e8565b610339823383610654565b5050565b60008061034a600161082d565b6001600160a01b03851660009081526020818152604080832060ff8816845290915281209192509061037b9061082d565b905080156103c757600454829082906103ae9064ffffffffff600160501b8204169069ffffffffffffffffffff16610860565b6103b89190610b6d565b6103c29190610b84565b6103ca565b60005b925050505b92915050565b6103dd6103e8565b61033982338361043d565b60006103f2610879565b9050600080610400836108a8565b9150915081600260000160008282546104199190610ba6565b909155505060038054829190600090610433908490610ba6565b9091555050505050565b6001600160a01b03821660009081526020818152604080832060ff8716845290915281209061046b82610907565b905060006104798285610ba6565b90508060000361049c576040516324d0659d60e11b815260040160405180910390fd5b6001546000906104b69083906001600160601b0316610ba6565b90506001600160601b038111156104e057604051631a93c68960e11b815260040160405180910390fd5b600180546bffffffffffffffffffffffff1942858102600160601b938490046001600160a01b0390811682018116850284166001600160601b038881169190911787558a54948516948116808a0190911694851786900482169092018116909402909217885560038089018054600160a01b80820465ffffffffffff9081168603909602828816019096166001600160d01b0319909116179390921693909302919091179055600280549287019290925554908501558415610619576005546040516323b872dd60e01b8152336004820152306024820152604481018790526001600160a01b03909116906323b872dd906064016020604051808303816000875af11580156105f3573d6000803e3d6000fd5b505050506040513d601f19601f820116820180604052508101906106179190610bb9565b505b82858860ff167fc8acfabcfb3af3df23b7b8a1aa1371d042bee71e137eeedc881ffa8f3c44626160405160405180910390a450505050505050565b6001600160a01b03821660009081526020818152604080832060ff87168452909152902080546001600160601b0316808311156106a457604051631e9acf1760e31b815260040160405180910390fd5b60006106af83610907565b905060006106bd8286610ba6565b9050806000036106e0576040516324d0659d60e11b815260040160405180910390fd5b600180546bffffffffffffffffffffffff1981166001600160601b0391821688900382169081178084558754600160601b908190046001600160a01b039081168b8a03428181029585900484168601929092038316840290951787559390941691841602178755600380880180546001600160d01b031916600160a01b65ffffffffffff90941693909302929092179091556002805493880193909355549186019190915560055460405163a9059cbb60e01b81523360048201526024810188905291169063a9059cbb906044016020604051808303816000875af11580156107cd573d6000803e3d6000fd5b505050506040513d601f19601f820116820180604052508101906107f19190610bb9565b5081858860ff167fabd2ab552bc04cdbfa4a54107fa44ac8c9cb06f6d21da11933ac05a653be19e960405160405180910390a450505050505050565b80546000906001600160a01b03600160601b82041690610856906001600160601b031642610b6d565b6103cf9190610bdb565b600042831061086f5781610872565b60005b9392505050565b6000610883610a48565b6004805464ffffffffff60781b1916600160781b4264ffffffffff1602179055919050565b60008060006108b7600161082d565b905080156109015780600160801b6108cf4287610b6d565b6108d99190610b6d565b6108e39190610b84565b9250806108f4600160801b86610b6d565b6108fe9190610b84565b91505b50915091565b6000610926604051806040016040528060008152602001600081525090565b60408051808201909152600184018054600254919291829161094791610bdb565b815260200182600101546002600101546109619190610bdb565b90526003850154909250600160a01b900465ffffffffffff1660000361099b57604051806040016040528060008152602001600081525091505b6003840154600160a01b900465ffffffffffff166000036109c0575060009392505050565b60038401546020830151600160801b916109e5916001600160a01b0390911690610b6d565b8554600387015460208601516001600160601b0390921691610a1691600160a01b900465ffffffffffff1690610b6d565b8551610a229190610bdb565b610a2c9190610b6d565b610a369190610ba6565b610a409190610b84565b949350505050565b600454600090600160501b900464ffffffffff1681428210610a6a5742610a6c565b815b600454909150600160781b900464ffffffffff1680821115610a9e5760045469ffffffffffffffffffff168183030293505b6001600160601b03841115610ab557610ab5610bee565b50505090565b803560ff81168114610acc57600080fd5b919050565b600060208284031215610ae357600080fd5b61087282610abb565b60008060408385031215610aff57600080fd5b82356001600160a01b0381168114610b1657600080fd5b9150610b2460208401610abb565b90509250929050565b60008060408385031215610b4057600080fd5b610b4983610abb565b946020939093013593505050565b634e487b7160e01b600052601160045260246000fd5b80820281158282048414176103cf576103cf610b57565b600082610ba157634e487b7160e01b600052601260045260246000fd5b500490565b808201808211156103cf576103cf610b57565b600060208284031215610bcb57600080fd5b8151801515811461087257600080fd5b818103818111156103cf576103cf610b57565b634e487b7160e01b600052600160045260246000fdfea2646970667358221220d5bca4dc9136d060b74b49ab6248ef04dfb37a87b56f8370f4cd4a466582254364736f6c63430008110033",
    "linkReferences": {}
  },
  "methodIdentifiers": {
    "PRECISION()": "aaf5eb68",
    "_rewardRate()": "68fd25cd",
    "accounts(address,uint8)": "1e83c794",
    "compound(uint8)": "043c9693",
    "harvest(uint8)": "15146d13",
    "lastUpdate()": "c0463711",
    "periodFinish()": "ebe2b12b",
    "positionRewardRate(address,uint8)": "bd71b5c3",
    "rewardSummationsStored()": "f5c45500",
    "stake(uint8,uint256)": "dd752e55",
    "totalValueVariables()": "df3e1aa4",
    "withdraw(uint8,uint256)": "3f489914"
  },
  "id": 1
}